:100200000C9450010C9462010C9462010C946201F4
:100210000C9462010C9462010C9462010C946201D2
:100220000C9462010C9462010C9462010C946201C2
:100230000C9462010C9462010C9462010C946201B2
:100240000C9462010C9462010C9462010C946201A2
:100250000C9462010C9462010C9462010C94620192
:100260000C9462010C94D4010C9462010C94620110
:100270000C9462010C9462010C9462010C94620172
:100280000C9462010C9462010C9462010C94620162
:100290000C9462010C9462010C9462010C94620152
:1002A00011241FBECFEFCDBFDFE3DEBF28E2A0E009
:1002B000B8E201C01D92A430B207E1F70E94FC0130
:1002C0000C9482020C9400019091000497FF0AC0E4
:1002D000811104C080E880930604089580E880932B
:1002E000050408959FB7F894811107C08091170401
:1002F000877F809317049FBF0895809117048860BB
:10030000F8CF8FB7F89420910028309101284091C0
:10031000022850910328E091AA0AF091AB0A90912B
:10032000A60A90FF08C02F5F3F4F4F4F5F4FE091ED
:10033000AA0AF091AB0A8FBFA8EEB3E00E94680250
:1003400024E0F695E7952A95E1F76E0F7F1F811D52
:10035000911D0895CF92DF92EF92FF920E9481014A
:100360006B017C0120E4C20E22E4D21E2FE0E21ECB
:10037000F11C80E4C81682E4D8068FE0E806F10498
:1003800038F40E948101C616D706E806F906C8F3BC
:100390000E9481016C157D058E059F05C8F3FF90B5
:1003A000EF90DF90CF9008951F920F920FB60F92AB
:1003B00011248F939F93AF93BF93809100289091C6
:1003C0000128A0910228B09103280196A11DB11D1A
:1003D0008093002890930128A0930228B0930328CB
:1003E00081E08093A60ABF91AF919F918F910F906A
:1003F0000FBE0F901F90189588ED90E084BF9093EA
:10040000610080910206866080930206809100065A
:10041000816080930006809102068F7C80658093C6
:1004200002061092E20582E08093E40581E0809369
:10043000030A8EEF8093270A8093260A80E8809330
:100440002D0A80932B0A8093290A80932C0A80938B
:100450002A0A8093280A8BE08093000A87E0809321
:10046000E505E0E8FAE037E02EEF90E885E031833B
:100470002487958780837096E03C4AE0F407B9F7BB
:100480001092A10A2FE73EE32093AC0A3093AD0A05
:100490008091A50A81608093A50A1092A00A80919C
:1004A000A00A81608093A00A789490930104C0E030
:1004B000D0E081E00E9464010E94AA0180E00E94D5
:1004C00064010E94AA012097A1F30E940000F1CFCD
:1004D0000E947302A59F900DB49F900DA49F800D64
:1004E000911D11240895A29FB001B39FC001A39F45
:1004F000700D811D1124911DB29F700D811D11245D
:08050000911D0895F894FFCF4E
:0400000300000200F7
:00000001FF
