:100000000C94E4000C9401010C9401010C94010186
:100010000C9401010C9401010C9401010C94010158
:100020000C9401010C9401010C9401010C94010148
:100030000C9401010C9401010C9401010C94010138
:100040000C9403010C9401010C9401010C94010126
:100050000C9401010C9401010C9401010C94010118
:100060000C9401010C9401010C9400000C9400000C
:100070000C9400000C9400000000000025002800F3
:100080002B002E0000000000240027002A002D0075
:10009000040404040404040402020202020203032E
:1000A000030303030505050505050503010204080F
:1000B00010204080010204081020010204081020D2
:1000C0000208010410204040000000000000000071
:1000D0000000000000000000000000000000000020
:1000E0000000000000000000000000000000000010
:1000F0000000000000000000000000000000000000
:1001000000000000000000000000000000000000EF
:1001100000000000000000000000000000000000DF
:1001200000000000000000000000000000000000CF
:1001300000000000000000000000000000000000BF
:100140000000000000000000FFFFFFFFFFFFFFFFB7
:10015000FFFFFFFFFFFFFFFFFFFFFFFFFFFFFFFFAF
:10016000FFFFFFFFFFFFFFFFFFFFFFFFFFFFFFFF9F
:10017000FFFFFFFFFFFFFFFFFFFFFFFFFFFFFFFF8F
:10018000FFFFFFFFFFFFFFFFFFFFFFFFFFFFFFFF7F
:10019000FFFFFFFFFFFFFFFFFFFFFFFFFFFFFFFF6F
:1001A000FFFFFFFFFFFFFFFFFFFFFFFFFFFFFFFF5F
:1001B000FFFFFFFFFFFFFFFFFFFFFFFFFFFFFFFF4F
:1001C000FFFFFFFFFFFFFFFF11241FBECFEFD8E0AF
:1001D000DEBFCDBF11E0A0E0B1E0E6E7F3E002C092
:1001E00005900D92A230B107D9F721E0A2E0B1E06D
:1001F00001C01D92AB30B207E1F70E9449010C9497
:10020000B9010C9400001F920F920FB60F921124A7
:100210002F933F938F939F93AF93BF938091070149
:1002200090910801A0910901B0910A013091060155
:1002300020E4230F2D3728F023EC230F0196A11D76
:10024000B11D209306018093070190930801A093AC
:100250000901B0930A018091020190910301A091DC
:100260000401B09105010196A11DB11D8093020109
:1002700090930301A0930401B0930501BF91AF9146
:100280009F918F913F912F910F900FBE0F901F90D4
:1002900018958091F20080618EBB90E89093F200F7
:1002A0008EB38093F2009093610081E080936100AF
:1002B0009093610010926100789494B5926094BD1F
:1002C00094B5916094BD23E025BD80936E0092E0CB
:1002D00090938100809380009091B10094609093FE
:1002E000B1008093B000209391008093900094E837
:1002F00090937A001092C100809300018091A00039
:100300008C708093A000809100018295880F880FE7
:10031000807C80937C00E0EBF0E0E491E4E9F0E0A5
:1003200084919091A0009C609093A000882369F034
:1003300090E0880F991FFC01EC57FF4F25913491F5
:10034000FC01E858FF4F8591949180916E008E7F5B
:1003500080936E0088EC91E0E8ECF0E09F012F5F65
:100360003F4FE491E093A100F90182179307B1F7A1
:06037000F3CFF894FFCF6B
:02037600010084
:00000001FF
